{
  "_format": "hh-sol-artifact-1",
  "contractName": "Staking",
  "sourceName": "contracts/Staking.sol",
  "abi": [
    {
      "inputs": [
        {
          "internalType": "address",
          "name": "_tokenAddress",
          "type": "address"
        },
        {
          "internalType": "uint256",
          "name": "_quota",
          "type": "uint256"
        },
        {
          "internalType": "uint256",
          "name": "_limitReward",
          "type": "uint256"
        }
      ],
      "stateMutability": "nonpayable",
      "type": "constructor"
    },
    {
      "anonymous": false,
      "inputs": [
        {
          "indexed": true,
          "internalType": "address",
          "name": "previousOwner",
          "type": "address"
        },
        {
          "indexed": true,
          "internalType": "address",
          "name": "newOwner",
          "type": "address"
        }
      ],
      "name": "OwnershipTransferred",
      "type": "event"
    },
    {
      "anonymous": false,
      "inputs": [
        {
          "indexed": false,
          "internalType": "address",
          "name": "staker",
          "type": "address"
        },
        {
          "indexed": false,
          "internalType": "uint256",
          "name": "amount",
          "type": "uint256"
        }
      ],
      "name": "Reward",
      "type": "event"
    },
    {
      "anonymous": false,
      "inputs": [
        {
          "indexed": false,
          "internalType": "address",
          "name": "staker",
          "type": "address"
        },
        {
          "indexed": false,
          "internalType": "uint256",
          "name": "amount",
          "type": "uint256"
        }
      ],
      "name": "Stake",
      "type": "event"
    },
    {
      "anonymous": false,
      "inputs": [
        {
          "indexed": false,
          "internalType": "address",
          "name": "staker",
          "type": "address"
        },
        {
          "indexed": false,
          "internalType": "uint256",
          "name": "amount",
          "type": "uint256"
        }
      ],
      "name": "Withdraw",
      "type": "event"
    },
    {
      "inputs": [],
      "name": "claimRewards",
      "outputs": [],
      "stateMutability": "nonpayable",
      "type": "function"
    },
    {
      "inputs": [
        {
          "internalType": "address",
          "name": "stakerAddress",
          "type": "address"
        }
      ],
      "name": "countReward",
      "outputs": [
        {
          "internalType": "uint256",
          "name": "_reward",
          "type": "uint256"
        }
      ],
      "stateMutability": "view",
      "type": "function"
    },
    {
      "inputs": [
        {
          "internalType": "address",
          "name": "stakerAddress",
          "type": "address"
        }
      ],
      "name": "countStake",
      "outputs": [
        {
          "internalType": "uint256",
          "name": "_stake",
          "type": "uint256"
        }
      ],
      "stateMutability": "view",
      "type": "function"
    },
    {
      "inputs": [],
      "name": "countTotalReward",
      "outputs": [
        {
          "internalType": "uint256",
          "name": "_totalReward",
          "type": "uint256"
        }
      ],
      "stateMutability": "view",
      "type": "function"
    },
    {
      "inputs": [],
      "name": "countTotalStake",
      "outputs": [
        {
          "internalType": "uint256",
          "name": "_totalStake",
          "type": "uint256"
        }
      ],
      "stateMutability": "view",
      "type": "function"
    },
    {
      "inputs": [
        {
          "internalType": "address",
          "name": "stakerAddress",
          "type": "address"
        }
      ],
      "name": "getStakeInfo",
      "outputs": [
        {
          "internalType": "uint256",
          "name": "_total",
          "type": "uint256"
        },
        {
          "internalType": "uint256",
          "name": "_staking",
          "type": "uint256"
        },
        {
          "internalType": "uint256",
          "name": "_rewardable",
          "type": "uint256"
        },
        {
          "internalType": "uint256",
          "name": "_rewards",
          "type": "uint256"
        }
      ],
      "stateMutability": "view",
      "type": "function"
    },
    {
      "inputs": [],
      "name": "lastUpdateTime",
      "outputs": [
        {
          "internalType": "uint256",
          "name": "",
          "type": "uint256"
        }
      ],
      "stateMutability": "view",
      "type": "function"
    },
    {
      "inputs": [],
      "name": "limitReward",
      "outputs": [
        {
          "internalType": "uint256",
          "name": "",
          "type": "uint256"
        }
      ],
      "stateMutability": "view",
      "type": "function"
    },
    {
      "inputs": [],
      "name": "owner",
      "outputs": [
        {
          "internalType": "address",
          "name": "",
          "type": "address"
        }
      ],
      "stateMutability": "view",
      "type": "function"
    },
    {
      "inputs": [],
      "name": "quota",
      "outputs": [
        {
          "internalType": "uint256",
          "name": "",
          "type": "uint256"
        }
      ],
      "stateMutability": "view",
      "type": "function"
    },
    {
      "inputs": [],
      "name": "renounceOwnership",
      "outputs": [],
      "stateMutability": "nonpayable",
      "type": "function"
    },
    {
      "inputs": [
        {
          "internalType": "uint256",
          "name": "amount",
          "type": "uint256"
        }
      ],
      "name": "stake",
      "outputs": [],
      "stateMutability": "nonpayable",
      "type": "function"
    },
    {
      "inputs": [
        {
          "internalType": "address",
          "name": "",
          "type": "address"
        }
      ],
      "name": "stakers",
      "outputs": [
        {
          "internalType": "uint256",
          "name": "firstStakingBlock",
          "type": "uint256"
        },
        {
          "internalType": "uint256",
          "name": "stakingAmount",
          "type": "uint256"
        },
        {
          "internalType": "uint256",
          "name": "lastUpdateTime",
          "type": "uint256"
        },
        {
          "internalType": "uint256",
          "name": "lastStakeUpdateTime",
          "type": "uint256"
        },
        {
          "internalType": "uint256",
          "name": "stake",
          "type": "uint256"
        },
        {
          "internalType": "uint256",
          "name": "rewards",
          "type": "uint256"
        }
      ],
      "stateMutability": "view",
      "type": "function"
    },
    {
      "inputs": [],
      "name": "startStakingTime",
      "outputs": [
        {
          "internalType": "uint256",
          "name": "",
          "type": "uint256"
        }
      ],
      "stateMutability": "view",
      "type": "function"
    },
    {
      "inputs": [],
      "name": "tokenAddress",
      "outputs": [
        {
          "internalType": "address",
          "name": "",
          "type": "address"
        }
      ],
      "stateMutability": "view",
      "type": "function"
    },
    {
      "inputs": [],
      "name": "totalReward",
      "outputs": [
        {
          "internalType": "uint256",
          "name": "",
          "type": "uint256"
        }
      ],
      "stateMutability": "view",
      "type": "function"
    },
    {
      "inputs": [],
      "name": "totalStake",
      "outputs": [
        {
          "internalType": "uint256",
          "name": "",
          "type": "uint256"
        }
      ],
      "stateMutability": "view",
      "type": "function"
    },
    {
      "inputs": [],
      "name": "totalStakingAmount",
      "outputs": [
        {
          "internalType": "uint256",
          "name": "",
          "type": "uint256"
        }
      ],
      "stateMutability": "view",
      "type": "function"
    },
    {
      "inputs": [
        {
          "internalType": "address",
          "name": "newOwner",
          "type": "address"
        }
      ],
      "name": "transferOwnership",
      "outputs": [],
      "stateMutability": "nonpayable",
      "type": "function"
    },
    {
      "inputs": [],
      "name": "unstaking",
      "outputs": [],
      "stateMutability": "nonpayable",
      "type": "function"
    }
  ],
  "bytecode": "0x6080604052636230a9f060005534801561001857600080fd5b50604051611033380380611033833981016040819052610037916100d2565b600180546001600160a01b0319166001600160a01b0385161790554260035561006882670de0b6b3a7640000610113565b60065561007d81670de0b6b3a7640000610113565b600755610088610090565b50505061013e565b600980546001600160a01b031916339081179091556040516000907f8be0079c531659141344cd1fd0a4f28419497f9722a3daafe3b4186f6b6457e0908290a3565b6000806000606084860312156100e6578283fd5b83516001600160a01b03811681146100fc578384fd5b602085015160409095015190969495509392505050565b600081600019048311821515161561013957634e487b7160e01b81526011600452602481fd5b500290565b610ee68061014d6000396000f3fe608060405234801561001057600080fd5b506004361061012c5760003560e01c80639d76ea58116100ad578063c98a891611610071578063c98a89161461029e578063cebe09c9146102a7578063d201114a146102b0578063e7caa8c4146102b9578063f2fde38b146102c157600080fd5b80639d76ea5814610229578063a694fc3a1461023c578063b87089d91461024f578063c345315314610262578063c8f33c911461029557600080fd5b8063715018a6116100f4578063715018a61461017a578063750142e6146101825780638b0e9f3f1461018b5780638da5cb5b146101945780639168ae72146101b957600080fd5b80632461da5514610131578063372500ab1461014c57806356714be314610156578063630b1146146101695780636f7cc72c14610171575b600080fd5b6101396102d4565b6040519081526020015b60405180910390f35b610154610309565b005b610139610164366004610db5565b6105a9565b6101546105f4565b61013960005481565b610154610733565b61013960045481565b61013960055481565b6009546001600160a01b03165b6040516001600160a01b039091168152602001610143565b6101fc6101c7366004610db5565b600860205260009081526040902080546001820154600283015460038401546004850154600590950154939492939192909186565b604080519687526020870195909552938501929092526060840152608083015260a082015260c001610143565b6001546101a1906001600160a01b031681565b61015461024a366004610dfc565b6107d7565b61013961025d366004610db5565b61099e565b610275610270366004610db5565b610a54565b604080519485526020850193909352918301526060820152608001610143565b61013960035481565b61013960075481565b61013960065481565b61013960025481565b610139610aa6565b6101546102cf366004610db5565b610add565b60006102f76102ee60035442610b4390919063ffffffff16565b60025490610b9f565b6005546103049190610e2c565b905090565b3360006103158261099e565b90506000610322836105a9565b6001600160a01b03841660009081526008602052604090205490915060079061035a9062015180906103549042610e83565b90610c06565b10156103be5760405162461bcd60e51b815260206004820152602860248201527f636c61696d203a20796f752063616e206e6f7420636c61696d207468652072656044820152671dd85c99081e595d60c21b60648201526084015b60405180910390fd5b6000811180156103d057506000600754115b61041c5760405162461bcd60e51b815260206004820152601a60248201527f636c61696d203a2072657761726420616d6f756e74206973203000000000000060448201526064016103b5565b806007541061042b578061042f565b6007545b60015460405163a9059cbb60e01b81526001600160a01b0386811660048301526024820184905292935091169063a9059cbb90604401602060405180830381600087803b15801561047f57600080fd5b505af1158015610493573d6000803e3d6000fd5b505050506040513d601f19601f820116820180604052508101906104b79190610ddc565b506001600160a01b038316600090815260086020526040812060050180548392906104e3908490610e2c565b9250508190555081600560008282546104fc9190610e83565b9250508190555080600460008282546105159190610e83565b92505081905550806007600082825461052e9190610e83565b90915550506001600160a01b0383166000908152600860205260408120600481019190915542600290910155610562610c58565b604080516001600160a01b0385168152602081018390527f619caafabdd75649b302ba8419e48cccf64f37f1983ac4727cfb38b57703ffc9910160405180910390a1505050565b6000806105b46102d4565b905060006105c0610aa6565b905060006105cd8561099e565b905082156105e8576105e3836103548484610b9f565b6105eb565b60005b95945050505050565b336000818152600860205260409020600101546001546001600160a01b031663a9059cbb836106296103e86103548682610b9f565b6040516001600160e01b031960e085901b1681526001600160a01b0390921660048301526024820152604401602060405180830381600087803b15801561066f57600080fd5b505af1158015610683573d6000803e3d6000fd5b505050506040513d601f19601f820116820180604052508101906106a79190610ddc565b506106b18261099e565b6001600160a01b03831660009081526008602052604081206004810192909255600182015542600282018190556003909101556106ec610c58565b604080516001600160a01b0384168152602081018390527f884edad9ce6fa2440d8a54cc123490eb96d2768479d49ff9c7366125a942436491015b60405180910390a15050565b6009546001600160a01b0316331461078d5760405162461bcd60e51b815260206004820181905260248201527f4f776e61626c653a2063616c6c6572206973206e6f7420746865206f776e657260448201526064016103b5565b6009546040516000916001600160a01b0316907f8be0079c531659141344cd1fd0a4f28419497f9722a3daafe3b4186f6b6457e0908390a3600980546001600160a01b0319169055565b6000544210156108295760405162461bcd60e51b815260206004820152601f60248201527f7374616b696e67203a20796f752063616e206e6f74207374616b65207965740060448201526064016103b5565b6001546040516323b872dd60e01b8152336004820181905230602483015260448201849052916001600160a01b0316906323b872dd90606401602060405180830381600087803b15801561087c57600080fd5b505af1158015610890573d6000803e3d6000fd5b505050506040513d601f19601f820116820180604052508101906108b49190610ddc565b506001600160a01b0381166000908152600860205260409020546108ee576001600160a01b03811660009081526008602052604090204290555b6108f78161099e565b6001600160a01b038216600090815260086020526040812060048101929092556001909101805484929061092c908490610e2c565b90915550506001600160a01b0381166000908152600860205260409020426002820181905560039091015561095f610c58565b604080516001600160a01b0383168152602081018490527febedb8b3c678666e7f36970bc8f57abf6d8fa2e828c0da91ea5b75bf68ed101a9101610727565b6001600160a01b0381166000908152600860209081526040808320815160c081018352815481526001820154938101939093526002808201549284019290925260038101546060840152600481015460808401526005015460a083015254158015610a0b57506080810151155b15610a195750600092915050565b610a3e8160200151610a38836040015142610b4390919063ffffffff16565b90610b9f565b8160800151610a4d9190610e2c565b9392505050565b6002546001600160a01b0382166000908152600860205260408120600101549080610a7e856105a9565b6001600160a01b03909516600090815260086020526040902060050154939592949392915050565b6000610ad062015180610354610ac760035442610b4390919063ffffffff16565b60065490610b9f565b6004546103049190610e2c565b6009546001600160a01b03163314610b375760405162461bcd60e51b815260206004820181905260248201527f4f776e61626c653a2063616c6c6572206973206e6f7420746865206f776e657260448201526064016103b5565b610b4081610cf4565b50565b600082610b508382610e83565b9150811115610b995760405162461bcd60e51b815260206004820152601560248201527464732d6d6174682d7375622d756e646572666c6f7760581b60448201526064016103b5565b92915050565b6000811580610bc357508282610bb58183610e64565b9250610bc19083610e44565b145b610b995760405162461bcd60e51b815260206004820152601460248201527364732d6d6174682d6d756c2d6f766572666c6f7760601b60448201526064016103b5565b6000808211610c4e5760405162461bcd60e51b815260206004820152601460248201527364732d6d6174682d6d756c2d6f766572666c6f7760601b60448201526064016103b5565b610a4d8284610e44565b610c606102d4565b600555610c6b610aa6565b6004908155426003556001546040516370a0823160e01b815230928101929092526001600160a01b0316906370a082319060240160206040518083038186803b158015610cb757600080fd5b505afa158015610ccb573d6000803e3d6000fd5b505050506040513d601f19601f82011682018060405250810190610cef9190610e14565b600255565b6001600160a01b038116610d595760405162461bcd60e51b815260206004820152602660248201527f4f776e61626c653a206e6577206f776e657220697320746865207a65726f206160448201526564647265737360d01b60648201526084016103b5565b6009546040516001600160a01b038084169216907f8be0079c531659141344cd1fd0a4f28419497f9722a3daafe3b4186f6b6457e090600090a3600980546001600160a01b0319166001600160a01b0392909216919091179055565b600060208284031215610dc6578081fd5b81356001600160a01b0381168114610a4d578182fd5b600060208284031215610ded578081fd5b81518015158114610a4d578182fd5b600060208284031215610e0d578081fd5b5035919050565b600060208284031215610e25578081fd5b5051919050565b60008219821115610e3f57610e3f610e9a565b500190565b600082610e5f57634e487b7160e01b81526012600452602481fd5b500490565b6000816000190483118215151615610e7e57610e7e610e9a565b500290565b600082821015610e9557610e95610e9a565b500390565b634e487b7160e01b600052601160045260246000fdfea26469706673582212204c718140521029894cc5968716061a9231391e1c962489064df6fa4b6ef9efa364736f6c63430008040033",
  "linkReferences": {},
  "deployedLinkReferences": {}
}